{
  "_format": "hh-sol-artifact-1",
  "contractName": "InvoiceShield",
  "sourceName": "contracts/InvoiceShield.sol",
  "abi": [
    {
      "inputs": [
        {
          "internalType": "bytes32",
          "name": "handle",
          "type": "bytes32"
        },
        {
          "internalType": "address",
          "name": "sender",
          "type": "address"
        }
      ],
      "name": "SenderNotAllowedToUseHandle",
      "type": "error"
    },
    {
      "inputs": [],
      "name": "ZamaProtocolUnsupported",
      "type": "error"
    },
    {
      "inputs": [],
      "name": "confidentialProtocolId",
      "outputs": [
        {
          "internalType": "uint256",
          "name": "",
          "type": "uint256"
        }
      ],
      "stateMutability": "view",
      "type": "function"
    },
    {
      "inputs": [
        {
          "internalType": "address",
          "name": "user",
          "type": "address"
        },
        {
          "internalType": "uint256",
          "name": "index",
          "type": "uint256"
        }
      ],
      "name": "getInvoiceApproval",
      "outputs": [
        {
          "internalType": "ebool",
          "name": "",
          "type": "bytes32"
        }
      ],
      "stateMutability": "view",
      "type": "function"
    },
    {
      "inputs": [
        {
          "internalType": "address",
          "name": "user",
          "type": "address"
        }
      ],
      "name": "getInvoiceCount",
      "outputs": [
        {
          "internalType": "uint256",
          "name": "",
          "type": "uint256"
        }
      ],
      "stateMutability": "view",
      "type": "function"
    },
    {
      "inputs": [
        {
          "internalType": "externalEuint32",
          "name": "inputAmount",
          "type": "bytes32"
        },
        {
          "internalType": "externalEuint32",
          "name": "inputRiskScore",
          "type": "bytes32"
        },
        {
          "internalType": "externalEuint32",
          "name": "inputTermDays",
          "type": "bytes32"
        },
        {
          "internalType": "bytes",
          "name": "inputProof",
          "type": "bytes"
        }
      ],
      "name": "submitInvoice",
      "outputs": [],
      "stateMutability": "nonpayable",
      "type": "function"
    }
  ],
  "bytecode": "0x608060405234801561001057600080fd5b5061002d61002261003260201b60201c565b6100cb60201b60201c565b610445565b61003a6103e2565b60014603610057576100506100dd60201b60201c565b90506100c8565b62aa36a746036100765761006f61018360201b60201c565b90506100c7565b617a6946036100945761008d61022960201b60201c565b90506100c6565b6040517f73cac13b00000000000000000000000000000000000000000000000000000000815260040160405180910390fd5b5b5b90565b6100da816102cf60201b60201c565b50565b6100e56103e2565b604051806060016040528073ca2e8f1f656cd25c01f05d0b243ab1ecd4a8ffb673ffffffffffffffffffffffffffffffffffffffff16815260200173d82385dada1ae3e969447f20a3164f6213100e7573ffffffffffffffffffffffffffffffffffffffff1681526020017377627828a55156b04ac0dc0eb30467f1a552bb0373ffffffffffffffffffffffffffffffffffffffff16815250905090565b61018b6103e2565b604051806060016040528073f0ffdc93b7e186bc2f8cb3daa75d86d1930a433d73ffffffffffffffffffffffffffffffffffffffff1681526020017392c920834ec8941d2c77d188936e1f7a6f49c12773ffffffffffffffffffffffffffffffffffffffff16815260200173be0e383937d564d7ff0bc3b46c51f0bf8d5c311a73ffffffffffffffffffffffffffffffffffffffff16815250905090565b6102316103e2565b60405180606001604052807350157cffd6bbfa2dece204a89ec419c23ef5755d73ffffffffffffffffffffffffffffffffffffffff16815260200173e3a9105a3a932253a70f126eb1e3b589c643dd2473ffffffffffffffffffffffffffffffffffffffff16815260200173901f8942346f7ab3a01f6d7613119bca447bb03073ffffffffffffffffffffffffffffffffffffffff16815250905090565b60006102df6103ba60201b60201c565b905081600001518160000160006101000a81548173ffffffffffffffffffffffffffffffffffffffff021916908373ffffffffffffffffffffffffffffffffffffffff16021790555081602001518160010160006101000a81548173ffffffffffffffffffffffffffffffffffffffff021916908373ffffffffffffffffffffffffffffffffffffffff16021790555081604001518160020160006101000a81548173ffffffffffffffffffffffffffffffffffffffff021916908373ffffffffffffffffffffffffffffffffffffffff1602179055505050565b60007f9e7b61f58c47dc699ac88507c4f5bb9f121c03808c5676a8078fe583e4649700905090565b6040518060600160405280600073ffffffffffffffffffffffffffffffffffffffff168152602001600073ffffffffffffffffffffffffffffffffffffffff168152602001600073ffffffffffffffffffffffffffffffffffffffff1681525090565b611577806104546000396000f3fe608060405234801561001057600080fd5b506004361061004c5760003560e01c806313e5969f1461005157806316c9eb4a146100815780634d7cc7151461009d5780638927b030146100cd575b600080fd5b61006b60048036038101906100669190610f90565b6100eb565b6040516100789190610fd6565b60405180910390f35b61009b6004803603810190610096919061108c565b610136565b005b6100b760048036038101906100b29190611140565b6105b4565b6040516100c491906111a1565b60405180910390f35b6100d5610620565b6040516100e29190610fd6565b60405180910390f35b60008060008373ffffffffffffffffffffffffffffffffffffffff1673ffffffffffffffffffffffffffffffffffffffff168152602001908152602001600020805490509050919050565b60006101868684848080601f016020809104026020016040519081016040528093929190818152602001838380828437600081840152601f19601f8201169050808301925050505050505061062f565b905060006101d88685858080601f016020809104026020016040519081016040528093929190818152602001838380828437600081840152601f19601f8201169050808301925050505050505061062f565b9050600061022a8686868080601f016020809104026020016040519081016040528093929190818152602001838380828437600081840152601f19601f8201169050808301925050505050505061062f565b905060006102428461023d6113886106c5565b6106df565b905060006102598461025460466106c5565b610729565b905060006102708461026b605a6106c5565b6106df565b905060006102876102818585610773565b83610773565b90506000803373ffffffffffffffffffffffffffffffffffffffff1673ffffffffffffffffffffffffffffffffffffffff1681526020019081526020016000206040518060800160405280898152602001888152602001878152602001838152509080600181540180825580915050600190039060005260206000209060040201600090919091909150600082015181600001556020820151816001015560408201518160020155606082015181600301555050600060016000803373ffffffffffffffffffffffffffffffffffffffff1673ffffffffffffffffffffffffffffffffffffffff1681526020019081526020016000208054905061038b91906111eb565b90506103f76000803373ffffffffffffffffffffffffffffffffffffffff1673ffffffffffffffffffffffffffffffffffffffff16815260200190815260200160002082815481106103e0576103df61121f565b5b9060005260206000209060040201600001546107bd565b506104626000803373ffffffffffffffffffffffffffffffffffffffff1673ffffffffffffffffffffffffffffffffffffffff168152602001908152602001600020828154811061044b5761044a61121f565b5b9060005260206000209060040201600101546107bd565b506104cd6000803373ffffffffffffffffffffffffffffffffffffffff1673ffffffffffffffffffffffffffffffffffffffff16815260200190815260200160002082815481106104b6576104b561121f565b5b9060005260206000209060040201600201546107bd565b506105386000803373ffffffffffffffffffffffffffffffffffffffff1673ffffffffffffffffffffffffffffffffffffffff16815260200190815260200160002082815481106105215761052061121f565b5b9060005260206000209060040201600301546107eb565b506105a46000803373ffffffffffffffffffffffffffffffffffffffff1673ffffffffffffffffffffffffffffffffffffffff168152602001908152602001600020828154811061058c5761058b61121f565b5b90600052602060002090600402016003015433610819565b5050505050505050505050505050565b60008060008473ffffffffffffffffffffffffffffffffffffffff1673ffffffffffffffffffffffffffffffffffffffff16815260200190815260200160002082815481106106065761060561121f565b5b906000526020600020906004020160030154905092915050565b600061062a610848565b905090565b60008082511461064c576106458383600461089a565b90506106bf565b60008390506000801b810361066d5761066560006106c5565b9150506106bf565b61067781336109e8565b6106ba5780336040517f0276b5d90000000000000000000000000000000000000000000000000000000081526004016106b192919061126c565b60405180910390fd5b809150505b92915050565b60006106d88263ffffffff166004610a9e565b9050919050565b60006106ea83610b56565b6106fb576106f860006106c5565b92505b61070482610b56565b6107155761071260006106c5565b91505b61072183836000610b66565b905092915050565b600061073483610b56565b6107455761074260006106c5565b92505b61074e82610b56565b61075f5761075c60006106c5565b91505b61076b83836000610c3e565b905092915050565b600061077e83610d16565b61078f5761078c6000610d26565b92505b61079882610d16565b6107a9576107a66000610d26565b91505b6107b583836000610d4b565b905092915050565b60006107c882610b56565b6107d9576107d660006106c5565b91505b6107e38230610e23565b819050919050565b60006107f682610d16565b610807576108046000610d26565b91505b6108118230610e23565b819050919050565b600061082483610d16565b610835576108326000610d26565b92505b61083f8383610e23565b82905092915050565b6000600146036108615761085a610ec5565b9050610897565b62aa36a7460361087a57610873610ece565b9050610897565b617a6946036108925761088b610ed8565b9050610897565b600090505b90565b6000806108a5610f00565b90508060010160009054906101000a900473ffffffffffffffffffffffffffffffffffffffff1673ffffffffffffffffffffffffffffffffffffffff166308bf832a863387876040518563ffffffff1660e01b815260040161090a949392919061139c565b6020604051808303816000875af1158015610929573d6000803e3d6000fd5b505050506040513d601f19601f8201168201806040525081019061094d9190611414565b91508060000160009054906101000a900473ffffffffffffffffffffffffffffffffffffffff1673ffffffffffffffffffffffffffffffffffffffff16633e395cec83336040518363ffffffff1660e01b81526004016109ae92919061126c565b600060405180830381600087803b1580156109c857600080fd5b505af11580156109dc573d6000803e3d6000fd5b50505050509392505050565b6000806109f3610f00565b90508060000160009054906101000a900473ffffffffffffffffffffffffffffffffffffffff1673ffffffffffffffffffffffffffffffffffffffff166382027b6d85856040518363ffffffff1660e01b8152600401610a5492919061126c565b602060405180830381865afa158015610a71573d6000803e3d6000fd5b505050506040513d601f19601f82011682018060405250810190610a959190611479565b91505092915050565b600080610aa9610f00565b90508060010160009054906101000a900473ffffffffffffffffffffffffffffffffffffffff1673ffffffffffffffffffffffffffffffffffffffff16639cd07acb85856040518363ffffffff1660e01b8152600401610b0a9291906114a6565b6020604051808303816000875af1158015610b29573d6000803e3d6000fd5b505050506040513d601f19601f82011682018060405250810190610b4d9190611414565b91505092915050565b60008060001b8214159050919050565b6000808215610b7b57600160f81b9050610b83565b600060f81b90505b6000610b8d610f00565b90508060010160009054906101000a900473ffffffffffffffffffffffffffffffffffffffff1673ffffffffffffffffffffffffffffffffffffffff16637513a4048787856040518463ffffffff1660e01b8152600401610bf09392919061150a565b6020604051808303816000875af1158015610c0f573d6000803e3d6000fd5b505050506040513d601f19601f82011682018060405250810190610c339190611414565b925050509392505050565b6000808215610c5357600160f81b9050610c5b565b600060f81b90505b6000610c65610f00565b90508060010160009054906101000a900473ffffffffffffffffffffffffffffffffffffffff1673ffffffffffffffffffffffffffffffffffffffff16631391547f8787856040518463ffffffff1660e01b8152600401610cc89392919061150a565b6020604051808303816000875af1158015610ce7573d6000803e3d6000fd5b505050506040513d601f19601f82011682018060405250810190610d0b9190611414565b925050509392505050565b60008060001b8214159050919050565b6000610d4482610d37576000610d3a565b60015b60ff166000610a9e565b9050919050565b6000808215610d6057600160f81b9050610d68565b600060f81b90505b6000610d72610f00565b90508060010160009054906101000a900473ffffffffffffffffffffffffffffffffffffffff1673ffffffffffffffffffffffffffffffffffffffff1663d99882d58787856040518463ffffffff1660e01b8152600401610dd59392919061150a565b6020604051808303816000875af1158015610df4573d6000803e3d6000fd5b505050506040513d601f19601f82011682018060405250810190610e189190611414565b925050509392505050565b6000610e2d610f00565b90508060000160009054906101000a900473ffffffffffffffffffffffffffffffffffffffff1673ffffffffffffffffffffffffffffffffffffffff1663b9496b6284846040518363ffffffff1660e01b8152600401610e8e92919061126c565b600060405180830381600087803b158015610ea857600080fd5b505af1158015610ebc573d6000803e3d6000fd5b50505050505050565b60006001905090565b6000612711905090565b60007fffffffffffffffffffffffffffffffffffffffffffffffffffffffffffffffff905090565b60007f9e7b61f58c47dc699ac88507c4f5bb9f121c03808c5676a8078fe583e4649700905090565b600080fd5b600080fd5b600073ffffffffffffffffffffffffffffffffffffffff82169050919050565b6000610f5d82610f32565b9050919050565b610f6d81610f52565b8114610f7857600080fd5b50565b600081359050610f8a81610f64565b92915050565b600060208284031215610fa657610fa5610f28565b5b6000610fb484828501610f7b565b91505092915050565b6000819050919050565b610fd081610fbd565b82525050565b6000602082019050610feb6000830184610fc7565b92915050565b6000819050919050565b61100481610ff1565b811461100f57600080fd5b50565b60008135905061102181610ffb565b92915050565b600080fd5b600080fd5b600080fd5b60008083601f84011261104c5761104b611027565b5b8235905067ffffffffffffffff8111156110695761106861102c565b5b60208301915083600182028301111561108557611084611031565b5b9250929050565b6000806000806000608086880312156110a8576110a7610f28565b5b60006110b688828901611012565b95505060206110c788828901611012565b94505060406110d888828901611012565b935050606086013567ffffffffffffffff8111156110f9576110f8610f2d565b5b61110588828901611036565b92509250509295509295909350565b61111d81610fbd565b811461112857600080fd5b50565b60008135905061113a81611114565b92915050565b6000806040838503121561115757611156610f28565b5b600061116585828601610f7b565b92505060206111768582860161112b565b9150509250929050565b600061118b82610ff1565b9050919050565b61119b81611180565b82525050565b60006020820190506111b66000830184611192565b92915050565b7f4e487b7100000000000000000000000000000000000000000000000000000000600052601160045260246000fd5b60006111f682610fbd565b915061120183610fbd565b9250828203905081811115611219576112186111bc565b5b92915050565b7f4e487b7100000000000000000000000000000000000000000000000000000000600052603260045260246000fd5b61125781610ff1565b82525050565b61126681610f52565b82525050565b6000604082019050611281600083018561124e565b61128e602083018461125d565b9392505050565b600081519050919050565b600082825260208201905092915050565b60005b838110156112cf5780820151818401526020810190506112b4565b60008484015250505050565b6000601f19601f8301169050919050565b60006112f782611295565b61130181856112a0565b93506113118185602086016112b1565b61131a816112db565b840191505092915050565b7f4e487b7100000000000000000000000000000000000000000000000000000000600052602160045260246000fd5b6054811061136557611364611325565b5b50565b600081905061137682611354565b919050565b600061138682611368565b9050919050565b6113968161137b565b82525050565b60006080820190506113b1600083018761124e565b6113be602083018661125d565b81810360408301526113d081856112ec565b90506113df606083018461138d565b95945050505050565b6113f181610ff1565b81146113fc57600080fd5b50565b60008151905061140e816113e8565b92915050565b60006020828403121561142a57611429610f28565b5b6000611438848285016113ff565b91505092915050565b60008115159050919050565b61145681611441565b811461146157600080fd5b50565b6000815190506114738161144d565b92915050565b60006020828403121561148f5761148e610f28565b5b600061149d84828501611464565b91505092915050565b60006040820190506114bb6000830185610fc7565b6114c8602083018461138d565b9392505050565b60007fff0000000000000000000000000000000000000000000000000000000000000082169050919050565b611504816114cf565b82525050565b600060608201905061151f600083018661124e565b61152c602083018561124e565b61153960408301846114fb565b94935050505056fea264697066735822122098d47b9aa2d33629d12d18fabbcf42dd85f491416f9578159e7bfa1542bc278364736f6c634300081c0033",
  "linkReferences": {},
  "deployedLinkReferences": {}
}